{"abi":[{"type":"constructor","inputs":[{"name":"_randaoCommitDelay","type":"uint256","internalType":"uint256"},{"name":"_randaoCommitExpiration","type":"uint256","internalType":"uint256"},{"name":"_minNumRequiredSignatures","type":"uint256","internalType":"uint256"},{"name":"_initialBeefyBlock","type":"uint64","internalType":"uint64"},{"name":"_initialValidatorSet","type":"tuple","internalType":"struct BeefyClient.ValidatorSet","components":[{"name":"id","type":"uint128","internalType":"uint128"},{"name":"length","type":"uint128","internalType":"uint128"},{"name":"root","type":"bytes32","internalType":"bytes32"}]},{"name":"_nextValidatorSet","type":"tuple","internalType":"struct BeefyClient.ValidatorSet","components":[{"name":"id","type":"uint128","internalType":"uint128"},{"name":"length","type":"uint128","internalType":"uint128"},{"name":"root","type":"bytes32","internalType":"bytes32"}]}],"stateMutability":"nonpayable"},{"type":"function","name":"MMR_ROOT_ID","inputs":[],"outputs":[{"name":"","type":"bytes2","internalType":"bytes2"}],"stateMutability":"view"},{"type":"function","name":"commitPrevRandao","inputs":[{"name":"commitmentHash","type":"bytes32","internalType":"bytes32"}],"outputs":[],"stateMutability":"nonpayable"},{"type":"function","name":"createFinalBitfield","inputs":[{"name":"commitmentHash","type":"bytes32","internalType":"bytes32"},{"name":"bitfield","type":"uint256[]","internalType":"uint256[]"}],"outputs":[{"name":"","type":"uint256[]","internalType":"uint256[]"}],"stateMutability":"view"},{"type":"function","name":"createInitialBitfield","inputs":[{"name":"bitsToSet","type":"uint256[]","internalType":"uint256[]"},{"name":"length","type":"uint256","internalType":"uint256"}],"outputs":[{"name":"","type":"uint256[]","internalType":"uint256[]"}],"stateMutability":"pure"},{"type":"function","name":"currentValidatorSet","inputs":[],"outputs":[{"name":"id","type":"uint128","internalType":"uint128"},{"name":"length","type":"uint128","internalType":"uint128"},{"name":"root","type":"bytes32","internalType":"bytes32"},{"name":"usageCounters","type":"tuple","internalType":"struct Uint16Array","components":[{"name":"data","type":"uint256[]","internalType":"uint256[]"},{"name":"length","type":"uint256","internalType":"uint256"}]}],"stateMutability":"view"},{"type":"function","name":"latestBeefyBlock","inputs":[],"outputs":[{"name":"","type":"uint64","internalType":"uint64"}],"stateMutability":"view"},{"type":"function","name":"latestMMRRoot","inputs":[],"outputs":[{"name":"","type":"bytes32","internalType":"bytes32"}],"stateMutability":"view"},{"type":"function","name":"minNumRequiredSignatures","inputs":[],"outputs":[{"name":"","type":"uint256","internalType":"uint256"}],"stateMutability":"view"},{"type":"function","name":"nextValidatorSet","inputs":[],"outputs":[{"name":"id","type":"uint128","internalType":"uint128"},{"name":"length","type":"uint128","internalType":"uint128"},{"name":"root","type":"bytes32","internalType":"bytes32"},{"name":"usageCounters","type":"tuple","internalType":"struct Uint16Array","components":[{"name":"data","type":"uint256[]","internalType":"uint256[]"},{"name":"length","type":"uint256","internalType":"uint256"}]}],"stateMutability":"view"},{"type":"function","name":"randaoCommitDelay","inputs":[],"outputs":[{"name":"","type":"uint256","internalType":"uint256"}],"stateMutability":"view"},{"type":"function","name":"randaoCommitExpiration","inputs":[],"outputs":[{"name":"","type":"uint256","internalType":"uint256"}],"stateMutability":"view"},{"type":"function","name":"submitFinal","inputs":[{"name":"commitment","type":"tuple","internalType":"struct BeefyClient.Commitment","components":[{"name":"blockNumber","type":"uint32","internalType":"uint32"},{"name":"validatorSetID","type":"uint64","internalType":"uint64"},{"name":"payload","type":"tuple[]","internalType":"struct BeefyClient.PayloadItem[]","components":[{"name":"payloadID","type":"bytes2","internalType":"bytes2"},{"name":"data","type":"bytes","internalType":"bytes"}]}]},{"name":"bitfield","type":"uint256[]","internalType":"uint256[]"},{"name":"proofs","type":"tuple[]","internalType":"struct BeefyClient.ValidatorProof[]","components":[{"name":"v","type":"uint8","internalType":"uint8"},{"name":"r","type":"bytes32","internalType":"bytes32"},{"name":"s","type":"bytes32","internalType":"bytes32"},{"name":"index","type":"uint256","internalType":"uint256"},{"name":"account","type":"address","internalType":"address"},{"name":"proof","type":"bytes32[]","internalType":"bytes32[]"}]},{"name":"leaf","type":"tuple","internalType":"struct BeefyClient.MMRLeaf","components":[{"name":"version","type":"uint8","internalType":"uint8"},{"name":"parentNumber","type":"uint32","internalType":"uint32"},{"name":"parentHash","type":"bytes32","internalType":"bytes32"},{"name":"nextAuthoritySetID","type":"uint64","internalType":"uint64"},{"name":"nextAuthoritySetLen","type":"uint32","internalType":"uint32"},{"name":"nextAuthoritySetRoot","type":"bytes32","internalType":"bytes32"},{"name":"parachainHeadsRoot","type":"bytes32","internalType":"bytes32"}]},{"name":"leafProof","type":"bytes32[]","internalType":"bytes32[]"},{"name":"leafProofOrder","type":"uint256","internalType":"uint256"}],"outputs":[],"stateMutability":"nonpayable"},{"type":"function","name":"submitInitial","inputs":[{"name":"commitment","type":"tuple","internalType":"struct BeefyClient.Commitment","components":[{"name":"blockNumber","type":"uint32","internalType":"uint32"},{"name":"validatorSetID","type":"uint64","internalType":"uint64"},{"name":"payload","type":"tuple[]","internalType":"struct BeefyClient.PayloadItem[]","components":[{"name":"payloadID","type":"bytes2","internalType":"bytes2"},{"name":"data","type":"bytes","internalType":"bytes"}]}]},{"name":"bitfield","type":"uint256[]","internalType":"uint256[]"},{"name":"proof","type":"tuple","internalType":"struct BeefyClient.ValidatorProof","components":[{"name":"v","type":"uint8","internalType":"uint8"},{"name":"r","type":"bytes32","internalType":"bytes32"},{"name":"s","type":"bytes32","internalType":"bytes32"},{"name":"index","type":"uint256","internalType":"uint256"},{"name":"account","type":"address","internalType":"address"},{"name":"proof","type":"bytes32[]","internalType":"bytes32[]"}]}],"outputs":[],"stateMutability":"nonpayable"},{"type":"function","name":"tickets","inputs":[{"name":"ticketID","type":"bytes32","internalType":"bytes32"}],"outputs":[{"name":"blockNumber","type":"uint64","internalType":"uint64"},{"name":"validatorSetLen","type":"uint32","internalType":"uint32"},{"name":"numRequiredSignatures","type":"uint32","internalType":"uint32"},{"name":"prevRandao","type":"uint256","internalType":"uint256"},{"name":"bitfieldHash","type":"bytes32","internalType":"bytes32"}],"stateMutability":"view"},{"type":"function","name":"verifyMMRLeafProof","inputs":[{"name":"leafHash","type":"bytes32","internalType":"bytes32"},{"name":"proof","type":"bytes32[]","internalType":"bytes32[]"},{"name":"proofOrder","type":"uint256","internalType":"uint256"}],"outputs":[{"name":"","type":"bool","internalType":"bool"}],"stateMutability":"view"},{"type":"event","name":"NewMMRRoot","inputs":[{"name":"mmrRoot","type":"bytes32","indexed":false,"internalType":"bytes32"},{"name":"blockNumber","type":"uint64","indexed":false,"internalType":"uint64"}],"anonymous":false},{"type":"event","name":"NewTicket","inputs":[{"name":"relayer","type":"address","indexed":false,"internalType":"address"},{"name":"blockNumber","type":"uint64","indexed":false,"internalType":"uint64"}],"anonymous":false},{"type":"error","name":"CommitmentNotRelevant","inputs":[]},{"type":"error","name":"IndexOutOfBounds","inputs":[]},{"type":"error","name":"InvalidBitfield","inputs":[]},{"type":"error","name":"InvalidBitfieldLength","inputs":[]},{"type":"error","name":"InvalidCommitment","inputs":[]},{"type":"error","name":"InvalidMMRLeaf","inputs":[]},{"type":"error","name":"InvalidMMRLeafProof","inputs":[]},{"type":"error","name":"InvalidMMRRootLength","inputs":[]},{"type":"error","name":"InvalidSignature","inputs":[]},{"type":"error","name":"InvalidTicket","inputs":[]},{"type":"error","name":"InvalidValidatorProof","inputs":[]},{"type":"error","name":"InvalidValidatorProofLength","inputs":[]},{"type":"error","name":"NotEnoughClaims","inputs":[]},{"type":"error","name":"PrevRandaoAlreadyCaptured","inputs":[]},{"type":"error","name":"PrevRandaoNotCaptured","inputs":[]},{"type":"error","name":"ProofSizeExceeded","inputs":[]},{"type":"error","name":"StaleCommitment","inputs":[]},{"type":"error","name":"TicketExpired","inputs":[]},{"type":"error","name":"UnsupportedCompactEncoding","inputs":[]},{"type":"error","name":"WaitPeriodNotOver","inputs":[]}],"bytecode":{"object":"0x60e060405234801561001057600080fd5b506040516137fc3803806137fc83398101604081905261002f9161033d565b815161003c9060016103c5565b6001600160801b031681600001516001600160801b0316146100a45760405162461bcd60e51b815260206004820152601a60248201527f696e76616c69642d636f6e7374727563746f722d706172616d73000000000000604482015260640160405180910390fd5b608086905260a085905260c0849052600180546001600160401b0319166001600160401b038516179055815160208301516001600160801b03918216600160801b91831682021760028190556040850151600355610105929190041661018e565b8051805160049161011b91839160200190610236565b50602091820151600191909101558151908201516001600160801b03918216600160801b9183168202176006819055604084015160075561015f929190041661018e565b8051805160089161017591839160200190610236565b5060208201518160010155905050505050505050610443565b60408051808201909152606081526000602082015260006101b0601084610402565b156101bc5760016101bf565b60005b60ff166101cd601085610416565b6101d7919061042a565b90506040518060400160405280826001600160401b038111156101fc576101fc610296565b604051908082528060200260200182016040528015610225578160200160208202803683370190505b508152602001939093525090919050565b828054828255906000526020600020908101928215610271579160200282015b82811115610271578251825591602001919060010190610256565b5061027d929150610281565b5090565b5b8082111561027d5760008155600101610282565b634e487b7160e01b600052604160045260246000fd5b80516001600160801b03811681146102c357600080fd5b919050565b6000606082840312156102da57600080fd5b604051606081016001600160401b038111828210171561030a57634e487b7160e01b600052604160045260246000fd5b604052905080610319836102ac565b8152610327602084016102ac565b6020820152604083015160408201525092915050565b600080600080600080610140878903121561035757600080fd5b86516020880151604089015160608a015192985090965094506001600160401b038116811461038557600080fd5b925061039488608089016102c8565b91506103a38860e089016102c8565b90509295509295509295565b634e487b7160e01b600052601160045260246000fd5b6001600160801b038181168382160190808211156103e5576103e56103af565b5092915050565b634e487b7160e01b600052601260045260246000fd5b600082610411576104116103ec565b500690565b600082610425576104256103ec565b500490565b8082018082111561043d5761043d6103af565b92915050565b60805160a05160c05161336e61048e6000396000818161021c0152610fe501526000818161028c0152610b7901526000818161019301528181610b0d0152610b9f015261336e6000f3fe608060405234801561001057600080fd5b50600436106100f55760003560e01c806366ae69a011610097578063a77cf3d211610066578063a77cf3d214610274578063ad209a9b14610287578063bb51f1eb146102ae578063df0dd0d5146102c157600080fd5b806366ae69a0146101ea5780636f55bd32146102175780638ab81d131461023e578063a401662b1461025157600080fd5b806341c9634e116100d357806341c9634e14610177578063591d99ee1461018e5780635da57fe9146101b5578063623b223d146101d557600080fd5b80630a7c8faa146100fa5780632cdea71714610157578063366675131461016f575b600080fd5b6101217f6d6800000000000000000000000000000000000000000000000000000000000081565b6040517fffff00000000000000000000000000000000000000000000000000000000000090911681526020015b60405180910390f35b61015f61035c565b60405161014e9493929190612a13565b61015f6103f5565b61018060005481565b60405190815260200161014e565b6101807f000000000000000000000000000000000000000000000000000000000000000081565b6101c86101c3366004612aef565b61048c565b60405161014e9190612b3b565b6101e86101e3366004612ba9565b6104db565b005b6001546101fe9067ffffffffffffffff1681565b60405167ffffffffffffffff909116815260200161014e565b6101807f000000000000000000000000000000000000000000000000000000000000000081565b6101c861024c366004612c87565b610950565b61026461025f366004612cd3565b610a53565b604051901515815260200161014e565b6101e8610282366004612d26565b610a64565b6101807f000000000000000000000000000000000000000000000000000000000000000081565b6101e86102bc366004612d3f565b610c5e565b61031f6102cf366004612d26565b600a6020526000908152604090208054600182015460029092015467ffffffffffffffff82169263ffffffff6801000000000000000084048116936c010000000000000000000000009004169185565b6040805167ffffffffffffffff96909616865263ffffffff948516602087015292909316918401919091526060830152608082015260a00161014e565b6002805460035460408051600480546060602082028401810185529383018181526fffffffffffffffffffffffffffffffff80881698700100000000000000000000000000000000909804169694849284918401828280156103dd57602002820191906000526020600020905b8154815260200190600101908083116103c9575b50505050508152602001600182015481525050905084565b6006805460075460408051600880546060602082028401810185529383018181526fffffffffffffffffffffffffffffffff80881698700100000000000000000000000000000000909804169694849284918401828280156103dd57602002820191906000526020600020908154815260200190600101908083116103c95750505050508152602001600182015481525050905084565b6060828210156104c8576040517f5c85a0e700000000000000000000000000000000000000000000000000000000815260040160405180910390fd5b6104d3848484611187565b949350505050565b60006104e68a611228565b8051906020012090506000610505338360009182526020526040902090565b9050610513818c8c8c61131b565b600080600660000160009054906101000a90046fffffffffffffffffffffffffffffffff166fffffffffffffffffffffffffffffffff168d602001602081019061055d9190612dd2565b67ffffffffffffffff16036105785750600190506006610608565b600260000160009054906101000a90046fffffffffffffffffffffffffffffffff166fffffffffffffffffffffffffffffffff168d60200160208101906105bf9190612dd2565b67ffffffffffffffff16036105d657506002610608565b6040517fc06789fa00000000000000000000000000000000000000000000000000000000815260040160405180910390fd5b61061784848e8e858f8f611472565b60006106228e6116c9565b9050821561083f5760065461064a906fffffffffffffffffffffffffffffffff166001612e2b565b6fffffffffffffffffffffffffffffffff1661066c60808b0160608c01612dd2565b67ffffffffffffffff16146106ad576040517fc72c820000000000000000000000000000000000000000000000000000000000815260040160405180910390fd5b60006106cb826106bc8c611868565b805190602001208b8b8b611964565b905080610704576040517f128597bb00000000000000000000000000000000000000000000000000000000815260040160405180910390fd5b600680547001000000000000000000000000000000008082046fffffffffffffffffffffffffffffffff9081169091029116176002908155600754600355600880546004906107569082908490612973565b5060019182015491015550610773905060808b0160608c01612dd2565b600680547fffffffffffffffffffffffffffffffff000000000000000000000000000000001667ffffffffffffffff929092169190911790556107bc60a08b0160808c01612e54565b600680546fffffffffffffffffffffffffffffffff1663ffffffff929092167001000000000000000000000000000000000291909117905560a08a0180356007556108199061080e9060808d01612e54565b63ffffffff166119ee565b8051805160089161082f918391602001906129c3565b5060208201518160010155905050505b600081905561085160208f018f612e54565b63ffffffff16600160006101000a81548167ffffffffffffffff021916908367ffffffffffffffff160217905550600a6000858152602001908152602001600020600080820160006101000a81549067ffffffffffffffff02191690556000820160086101000a81549063ffffffff021916905560008201600c6101000a81549063ffffffff02191690556001820160009055600282016000905550507fd95fe1258d152dc91c81b09380498adc76ed36a6079bcb2ed31eff622ae2d0f1818f60000160208101906109239190612e54565b6040805192835263ffffffff90911660208301520160405180910390a15050505050505050505050505050565b60606000600a600061096c338860009182526020526040902090565b81526020019081526020016000209050838360405160200161098f929190612e7a565b604051602081830303815290604052805190602001208160020154146109e1576040517f6768c0aa00000000000000000000000000000000000000000000000000000000815260040160405180910390fd5b610a4a816001015485858080602002602001604051908101604052809392919081815260200183836020028082843760009201919091525050855463ffffffff6c0100000000000000000000000082048116935068010000000000000000909104169050611a97565b95945050505050565b6000610a4a60005486868686611964565b3360009081526020829052604081206000818152600a6020526040812080549293509167ffffffffffffffff169003610ac9576040517f6686db6400000000000000000000000000000000000000000000000000000000815260040160405180910390fd5b600181015415610b05576040517fe31d900500000000000000000000000000000000000000000000000000000000815260040160405180910390fd5b8054610b3c907f00000000000000000000000000000000000000000000000000000000000000009067ffffffffffffffff16612ebc565b431015610b75576040517fc77c194900000000000000000000000000000000000000000000000000000000815260040160405180910390fd5b80547f000000000000000000000000000000000000000000000000000000000000000090610bce907f00000000000000000000000000000000000000000000000000000000000000009067ffffffffffffffff16612ebc565b610bd89190612ebc565b431115610c53576000828152600a602052604080822080547fffffffffffffffffffffffffffffffff00000000000000000000000000000000168155600181018390556002019190915580517f40d3544700000000000000000000000000000000000000000000000000000000815290519081900360040190fd5b446001909101555050565b60015467ffffffffffffffff16610c786020860186612e54565b63ffffffff1611610cb5576040517f3d618e5000000000000000000000000000000000000000000000000000000000815260040160405180910390fd5b60025460009081906fffffffffffffffffffffffffffffffff16610cdf6040880160208901612dd2565b67ffffffffffffffff1603610d2857610cfd60046060850135611b46565b9050610d1f6060840135610d1661ffff84166001611bcd565b60049190611bec565b60029150610d92565b6006546fffffffffffffffffffffffffffffffff16610d4d6040880160208901612dd2565b67ffffffffffffffff16036105d657610d6b60086060850135611b46565b9050610d8d6060840135610d8461ffff84166001611bcd565b60089190611bec565b600691505b610dbd82610da660a0860160808701612ecf565b6060860135610db860a0880188612f05565b611cb3565b1580610e065750610e048585808060200260200160405190810160405280939291908181526020018383602002808284376000920191909152505050506060850135611d6a565b155b15610e3d576040517fe00153fa00000000000000000000000000000000000000000000000000000000815260040160405180910390fd5b6000610e4887611228565b80516020909101209050610e6260a0850160808601612ecf565b73ffffffffffffffffffffffffffffffffffffffff16610e9882610e896020880188612f6d565b87602001358860400135611daf565b73ffffffffffffffffffffffffffffffffffffffff1614610ee5576040517f8baa579f00000000000000000000000000000000000000000000000000000000815260040160405180910390fd5b8254610f169070010000000000000000000000000000000090046fffffffffffffffffffffffffffffffff16611dd7565b610f52878780806020026020016040519081016040528093929190818152602001838360200280828437600092019190915250611dfa92505050565b1015610f8a576040517fee3e74af00000000000000000000000000000000000000000000000000000000815260040160405180910390fd5b6040805160a0810182524367ffffffffffffffff1681528454700100000000000000000000000000000000900463ffffffff811660208301529091820190611009906fffffffffffffffffffffffffffffffff1661ffff86167f000000000000000000000000000000000000000000000000000000000000000061206a565b63ffffffff16815260200160008152602001878760405160200161102e929190612e7a565b60405160208183030381529060405280519060200120815250600a600061105f338560009182526020526040902090565b8152602080820192909252604090810160002083518154858501519386015163ffffffff9081166c01000000000000000000000000027fffffffffffffffffffffffffffffffff00000000ffffffffffffffffffffffff9190951668010000000000000000027fffffffffffffffffffffffffffffffffffffffff00000000000000000000000090921667ffffffffffffffff909316929092171716919091178155606083015160018201556080909201516002909201919091557fbee983fc706c692efb9b0240bddc5666c010a53af55ed5fb42d226e7e429386990339061114a908a018a612e54565b6040805173ffffffffffffffffffffffffffffffffffffffff909316835263ffffffff90911660208301520160405180910390a150505050505050565b606060006101006111998460ff612ebc565b6111a39190612fbf565b90508067ffffffffffffffff8111156111be576111be612fd3565b6040519080825280602002602001820160405280156111e7578160200160208202803683370190505b50915060005b8481101561121f576112178387878481811061120b5761120b613002565b905060200201356120c3565b6001016111ed565b50509392505050565b606061123f61123a6040840184612f05565b61211b565b61127661124f6020850185612e54565b600881811c62ff00ff1663ff00ff009290911b9190911617601081811c91901b1760e01b90565b6112f36112896040860160208701612dd2565b600065ff000000ff00600883811b91821664ff000000ff9185901c91821617601090811b67ff000000ff0000009390931666ff000000ff00009290921691909117901c17602081811b6bffffffffffffffff000000001691901c63ffffffff161760c01b92915050565b60405160200161130593929190613061565b6040516020818303038152906040529050919050565b6000848152600a602052604081208054909167ffffffffffffffff9091169003611371576040517f6686db6400000000000000000000000000000000000000000000000000000000815260040160405180910390fd5b80600101546000036113af576040517f78ef3a4700000000000000000000000000000000000000000000000000000000815260040160405180910390fd5b60015467ffffffffffffffff166113c96020860186612e54565b63ffffffff1611611406576040517f3d618e5000000000000000000000000000000000000000000000000000000000815260040160405180910390fd5b8282604051602001611419929190612e7a565b6040516020818303038152906040528051906020012081600201541461146b576040517f6768c0aa00000000000000000000000000000000000000000000000000000000815260040160405180910390fd5b5050505050565b6000868152600a6020526040902080546c01000000000000000000000000900463ffffffff168281146114d1576040517f1f1711da00000000000000000000000000000000000000000000000000000000815260040160405180910390fd5b600061153e8360010154898980806020026020016040519081016040528093929190818152602001838360200280828437600092019190915250508a5487925070010000000000000000000000000000000090046fffffffffffffffffffffffffffffffff169050611a97565b905060005b848110156116bc573686868381811061155e5761155e613002565b905060200281019061157091906130c5565b9050611580838260600135611d6a565b6115b6576040517fe00153fa00000000000000000000000000000000000000000000000000000000815260040160405180910390fd5b6115dc886115ca60a0840160808501612ecf565b6060840135610db860a0860186612f05565b611612576040517fe00153fa00000000000000000000000000000000000000000000000000000000815260040160405180910390fd5b61162260a0820160808301612ecf565b73ffffffffffffffffffffffffffffffffffffffff166116588d6116496020850185612f6d565b84602001358560400135611daf565b73ffffffffffffffffffffffffffffffffffffffff16146116a5576040517f8baa579f00000000000000000000000000000000000000000000000000000000815260040160405180910390fd5b6116b383826060013561222a565b50600101611543565b5050505050505050505050565b6000805b6116da6040840184612f05565b9050811015611835577f6d680000000000000000000000000000000000000000000000000000000000006117116040850185612f05565b8381811061172157611721613002565b90506020028101906117339190613103565b611741906020810190613137565b7fffff000000000000000000000000000000000000000000000000000000000000160361182d576117756040840184612f05565b8281811061178557611785613002565b90506020028101906117979190613103565b6117a5906020810190613179565b90506020146117e0576040517f7df9c48600000000000000000000000000000000000000000000000000000000815260040160405180910390fd5b6117ed6040840184612f05565b828181106117fd576117fd613002565b905060200281019061180f9190613103565b61181d906020810190613179565b611826916131de565b9392505050565b6001016116cd565b506040517f484ab7df00000000000000000000000000000000000000000000000000000000815260040160405180910390fd5b606061188061187a6020840184612f6d565b60f81b90565b61189361124f6040850160208601612e54565b60408401356118ab6112896080870160608801612dd2565b6118be61124f60a0880160808901612e54565b6040517fff0000000000000000000000000000000000000000000000000000000000000090951660208601527fffffffff00000000000000000000000000000000000000000000000000000000938416602186015260258501929092527fffffffffffffffff00000000000000000000000000000000000000000000000016604584015216604d82015260a0830135605182015260c08301356071820152609101611305565b60006101008311156119a2576040517f5e862a8a00000000000000000000000000000000000000000000000000000000815260040160405180910390fd5b8460005b848110156119e1576119d7828787848181106119c4576119c4613002565b905060200201358387901c60011661225f565b91506001016119a6565b5090951495945050505050565b6040805180820190915260608152600060208201526000611a1060108461321a565b15611a1c576001611a1f565b60005b60ff16611a2d601085612fbf565b611a379190612ebc565b905060405180604001604052808267ffffffffffffffff811115611a5d57611a5d612fd3565b604051908082528060200260200182016040528015611a86578160200160208202803683370190505b508152602001939093525090919050565b6060835167ffffffffffffffff811115611ab357611ab3612fd3565b604051908082528060200260200182016040528015611adc578160200160208202803683370190505b5090506000805b84821015611b3c576000878152602082905260409020849006611b068782611d6a565b1580611b175750611b178482611d6a565b15611b255750600101611ae3565b611b2f84826120c3565b5060019182019101611ae3565b5050949350505050565b600082600101548210611b85576040517f4e23d03500000000000000000000000000000000000000000000000000000000815260040160405180910390fd5b600482901c600f8316611b9981601061322e565b60ff16856000018381548110611bb157611bb1613002565b9060005260206000200154901c61ffff16925050505b92915050565b600082820161ffff80851690821610156118265761ffff915050611bc7565b82600101548210611c29576040517f4e23d03500000000000000000000000000000000000000000000000000000000815260040160405180910390fd5b600482901c600f83166000611c3f82601061322e565b60ff1661ffff901b1990506000826010611c59919061322e565b60ff168561ffff16901b90508082886000018681548110611c7c57611c7c613002565b90600052602060002001541617876000018581548110611c9e57611c9e613002565b60009182526020909120015550505050505050565b6040517fffffffffffffffffffffffffffffffffffffffff000000000000000000000000606086901b1660208201526000908190603401604080518083037fffffffffffffffffffffffffffffffffffffffffffffffffffffffffffffffe0018152919052805160209091012060018801548854919250611d5f918390889070010000000000000000000000000000000090046fffffffffffffffffffffffffffffffff16888861228c565b979650505050505050565b600080600883901c9050611da083858381518110611d8a57611d8a613002565b60200260200101516122b990919063ffffffff16565b60ff1660011491505092915050565b6000806000611dc0878787876122c3565b91509150611dcd816123b2565b5095945050505050565b60006003611de660018461324a565b611df09190612fbf565b611bc7908361324a565b600080805b8351811015612063576000848281518110611e1c57611e1c613002565b602002602001015190507f5555555555555555555555555555555555555555555555555555555555555555600182901c167f555555555555555555555555555555555555555555555555555555555555555582160190507f3333333333333333333333333333333333333333333333333333333333333333600282901c167f333333333333333333333333333333333333333333333333333333333333333382160190507f0f0f0f0f0f0f0f0f0f0f0f0f0f0f0f0f0f0f0f0f0f0f0f0f0f0f0f0f0f0f0f0f600482901c167f0f0f0f0f0f0f0f0f0f0f0f0f0f0f0f0f0f0f0f0f0f0f0f0f0f0f0f0f0f0f0f0f82160190507eff00ff00ff00ff00ff00ff00ff00ff00ff00ff00ff00ff00ff00ff00ff00ff600882901c167eff00ff00ff00ff00ff00ff00ff00ff00ff00ff00ff00ff00ff00ff00ff00ff82160190507dffff0000ffff0000ffff0000ffff0000ffff0000ffff0000ffff0000ffff601082901c167dffff0000ffff0000ffff0000ffff0000ffff0000ffff0000ffff0000ffff82160190507bffffffff00000000ffffffff00000000ffffffff00000000ffffffff602082901c167bffffffff00000000ffffffff00000000ffffffff00000000ffffffff821601905077ffffffffffffffff0000000000000000ffffffffffffffff604082901c1677ffffffffffffffff0000000000000000ffffffffffffffff82160190506fffffffffffffffffffffffffffffffff608082901c166fffffffffffffffffffffffffffffffff82160190508083019250508080600101915050611dff565b5092915050565b60008161207885600161256d565b6120829082612ebc565b905061208f84600161256d565b61209a90600261325d565b6120a5906001612ebc565b6120af9082612ebc565b9050610a4a816120be87611dd7565b6125ac565b6000600882901c90506120f8828483815181106120e2576120e2613002565b60200260200101516125c290919063ffffffff16565b83828151811061210a5761210a613002565b602002602001018181525050505050565b60606000612128836125cf565b905060005b83811015612222578185858381811061214857612148613002565b905060200281019061215a9190613103565b612168906020810190613137565b6121a487878581811061217d5761217d613002565b905060200281019061218f9190613103565b61219d906020810190613179565b90506125cf565b8787858181106121b6576121b6613002565b90506020028101906121c89190613103565b6121d6906020810190613179565b6040516020016121ea959493929190613274565b604080517fffffffffffffffffffffffffffffffffffffffffffffffffffffffffffffffe0818403018152919052915060010161212d565b509392505050565b6000600882901c90506120f88284838151811061224957612249613002565b602002602001015161261890919063ffffffff16565b600081801561227557836000528460205261227e565b84600052836020525b505060406000209392505050565b600083851061229d575060006122af565b6122aa8686868686612626565b871490505b9695505050505050565b60ff161c60011690565b6000807f7fffffffffffffffffffffffffffffff5d576e7357a4501ddfe92f46681b20a08311156122fa57506000905060036123a9565b6040805160008082526020820180845289905260ff881692820192909252606081018690526080810185905260019060a0016020604051602081039080840390855afa15801561234e573d6000803e3d6000fd5b50506040517fffffffffffffffffffffffffffffffffffffffffffffffffffffffffffffffe0015191505073ffffffffffffffffffffffffffffffffffffffff81166123a2576000600192509250506123a9565b9150600090505b94509492505050565b60008160048111156123c6576123c66132ca565b036123ce5750565b60018160048111156123e2576123e26132ca565b0361244e576040517f08c379a000000000000000000000000000000000000000000000000000000000815260206004820152601860248201527f45434453413a20696e76616c6964207369676e6174757265000000000000000060448201526064015b60405180910390fd5b6002816004811115612462576124626132ca565b036124c9576040517f08c379a000000000000000000000000000000000000000000000000000000000815260206004820152601f60248201527f45434453413a20696e76616c6964207369676e6174757265206c656e677468006044820152606401612445565b60038160048111156124dd576124dd6132ca565b0361256a576040517f08c379a000000000000000000000000000000000000000000000000000000000815260206004820152602260248201527f45434453413a20696e76616c6964207369676e6174757265202773272076616c60448201527f75650000000000000000000000000000000000000000000000000000000000006064820152608401612445565b50565b600080612579846126ee565b905061258483612782565b8015612593575083816001901b105b61259e5760006125a1565b60015b60ff16019392505050565b60008183106125bb5781611826565b5090919050565b600160ff919091161b1790565b606063ffffffff82111561260f576040517fe809999a00000000000000000000000000000000000000000000000000000000815260040160405180910390fd5b611bc7826127af565b600160ff919091161b191690565b600085815b838110156126e357866001166001148061264757508587600101145b1561267f5761267885858381811061266157612661613002565b905060200201358360009182526020526040902090565b91506126ae565b6126ab8286868481811061269557612695613002565b9050602002013560009182526020526040902090565b91505b600196871c967fffffffffffffffffffffffffffffffffffffffffffffffffffffffffffffffff909601861c8601950161262b565b509695505050505050565b600080608083901c1561270357608092831c92015b604083901c1561271557604092831c92015b602083901c1561272757602092831c92015b601083901c1561273957601092831c92015b600883901c1561274b57600892831c92015b600483901c1561275d57600492831c92015b600283901c1561276f57600292831c92015b600183901c15611bc75760010192915050565b60006002826003811115612798576127986132ca565b6127a291906132f9565b60ff166001149050919050565b6060603f8263ffffffff16116127f6576040517ffc0000000000000000000000000000000000000000000000000000000000000060fa84901b166020820152602101611305565b613fff8263ffffffff161161286d5761283261281e6403fffffffc600285901b16600161331b565b600881811b62ffff001691901c60ff161790565b604051602001611305919060f09190911b7fffff00000000000000000000000000000000000000000000000000000000000016815260020190565b633fffffff8263ffffffff16116128f7576128bc60028363ffffffff16901b6002612898919061331b565b600881811c62ff00ff1663ff00ff009290911b9190911617601081811c91901b1790565b604051602001611305919060e09190911b7fffffffff0000000000000000000000000000000000000000000000000000000016815260040190565b6040517f030000000000000000000000000000000000000000000000000000000000000060208201527fffffffff00000000000000000000000000000000000000000000000000000000600884811c62ff00ff1663ff00ff009186901b9190911617601081811c91901b1760e01b166021820152602501611305565b8280548282559060005260206000209081019282156129b35760005260206000209182015b828111156129b3578254825591600101919060010190612998565b506129bf9291506129fe565b5090565b8280548282559060005260206000209081019282156129b3579160200282015b828111156129b35782518255916020019190600101906129e3565b5b808211156129bf57600081556001016129ff565b60006fffffffffffffffffffffffffffffffff8087168352602081871660208501528560408501526080606085015260c08401915084516040608086015282815180855260e087019150602083019450600092505b80831015612a885784518252938301936001929092019190830190612a68565b50602087015160a08701528094505050505095945050505050565b60008083601f840112612ab557600080fd5b50813567ffffffffffffffff811115612acd57600080fd5b6020830191508360208260051b8501011115612ae857600080fd5b9250929050565b600080600060408486031215612b0457600080fd5b833567ffffffffffffffff811115612b1b57600080fd5b612b2786828701612aa3565b909790965060209590950135949350505050565b6020808252825182820181905260009190848201906040850190845b81811015612b7357835183529284019291840191600101612b57565b50909695505050505050565b600060608284031215612b9157600080fd5b50919050565b600060e08284031215612b9157600080fd5b60008060008060008060008060006101808a8c031215612bc857600080fd5b893567ffffffffffffffff80821115612be057600080fd5b612bec8d838e01612b7f565b9a5060208c0135915080821115612c0257600080fd5b612c0e8d838e01612aa3565b909a50985060408c0135915080821115612c2757600080fd5b612c338d838e01612aa3565b9098509650869150612c488d60608e01612b97565b95506101408c0135915080821115612c5f57600080fd5b50612c6c8c828d01612aa3565b9a9d999c50979a969995989497966101600135949350505050565b600080600060408486031215612c9c57600080fd5b83359250602084013567ffffffffffffffff811115612cba57600080fd5b612cc686828701612aa3565b9497909650939450505050565b60008060008060608587031215612ce957600080fd5b84359350602085013567ffffffffffffffff811115612d0757600080fd5b612d1387828801612aa3565b9598909750949560400135949350505050565b600060208284031215612d3857600080fd5b5035919050565b60008060008060608587031215612d5557600080fd5b843567ffffffffffffffff80821115612d6d57600080fd5b612d7988838901612b7f565b95506020870135915080821115612d8f57600080fd5b612d9b88838901612aa3565b90955093506040870135915080821115612db457600080fd5b50850160c08188031215612dc757600080fd5b939692955090935050565b600060208284031215612de457600080fd5b813567ffffffffffffffff8116811461182657600080fd5b7f4e487b7100000000000000000000000000000000000000000000000000000000600052601160045260246000fd5b6fffffffffffffffffffffffffffffffff81811683821601908082111561206357612063612dfc565b600060208284031215612e6657600080fd5b813563ffffffff8116811461182657600080fd5b60007f07ffffffffffffffffffffffffffffffffffffffffffffffffffffffffffffff831115612ea957600080fd5b8260051b80858437919091019392505050565b80820180821115611bc757611bc7612dfc565b600060208284031215612ee157600080fd5b813573ffffffffffffffffffffffffffffffffffffffff8116811461182657600080fd5b60008083357fffffffffffffffffffffffffffffffffffffffffffffffffffffffffffffffe1843603018112612f3a57600080fd5b83018035915067ffffffffffffffff821115612f5557600080fd5b6020019150600581901b3603821315612ae857600080fd5b600060208284031215612f7f57600080fd5b813560ff8116811461182657600080fd5b7f4e487b7100000000000000000000000000000000000000000000000000000000600052601260045260246000fd5b600082612fce57612fce612f90565b500490565b7f4e487b7100000000000000000000000000000000000000000000000000000000600052604160045260246000fd5b7f4e487b7100000000000000000000000000000000000000000000000000000000600052603260045260246000fd5b6000815160005b818110156130525760208185018101518683015201613038565b50600093019283525090919050565b600061306d8286613031565b7fffffffff0000000000000000000000000000000000000000000000000000000094909416845250507fffffffffffffffff000000000000000000000000000000000000000000000000166004820152600c01919050565b600082357fffffffffffffffffffffffffffffffffffffffffffffffffffffffffffffff418336030181126130f957600080fd5b9190910192915050565b600082357fffffffffffffffffffffffffffffffffffffffffffffffffffffffffffffffc18336030181126130f957600080fd5b60006020828403121561314957600080fd5b81357fffff0000000000000000000000000000000000000000000000000000000000008116811461182657600080fd5b60008083357fffffffffffffffffffffffffffffffffffffffffffffffffffffffffffffffe18436030181126131ae57600080fd5b83018035915067ffffffffffffffff8211156131c957600080fd5b602001915036819003821315612ae857600080fd5b80356020831015611bc7577fffffffffffffffffffffffffffffffffffffffffffffffffffffffffffffffff602084900360031b1b1692915050565b60008261322957613229612f90565b500690565b60ff818116838216029081169081811461206357612063612dfc565b81810381811115611bc757611bc7612dfc565b8082028115828204841417611bc757611bc7612dfc565b60006132808288613031565b7fffff000000000000000000000000000000000000000000000000000000000000871681526132b26002820187613031565b90508385823760009301928352509095945050505050565b7f4e487b7100000000000000000000000000000000000000000000000000000000600052602160045260246000fd5b600060ff83168061330c5761330c612f90565b8060ff84160691505092915050565b63ffffffff81811683821601908082111561206357612063612dfc56fea26469706673582212208caa966ef467c435319f24f90e7bda1e7e30877c8eaa94b8ae1a4b450c7b186464736f6c63430008190033","linkReferences":{}},"methodIdentifiers":{"MMR_ROOT_ID()":"0a7c8faa","commitPrevRandao(bytes32)":"a77cf3d2","createFinalBitfield(bytes32,uint256[])":"8ab81d13","createInitialBitfield(uint256[],uint256)":"5da57fe9","currentValidatorSet()":"2cdea717","latestBeefyBlock()":"66ae69a0","latestMMRRoot()":"41c9634e","minNumRequiredSignatures()":"6f55bd32","nextValidatorSet()":"36667513","randaoCommitDelay()":"591d99ee","randaoCommitExpiration()":"ad209a9b","submitFinal((uint32,uint64,(bytes2,bytes)[]),uint256[],(uint8,bytes32,bytes32,uint256,address,bytes32[])[],(uint8,uint32,bytes32,uint64,uint32,bytes32,bytes32),bytes32[],uint256)":"623b223d","submitInitial((uint32,uint64,(bytes2,bytes)[]),uint256[],(uint8,bytes32,bytes32,uint256,address,bytes32[]))":"bb51f1eb","tickets(bytes32)":"df0dd0d5","verifyMMRLeafProof(bytes32,bytes32[],uint256)":"a401662b"},"id":57}